{
  "_format": "hh-sol-artifact-1",
  "contractName": "FLTask",
  "sourceName": "contracts/FLTask.sol",
  "abi": [
    {
      "anonymous": false,
      "inputs": [
        {
          "indexed": false,
          "internalType": "uint256",
          "name": "taskID",
          "type": "uint256"
        },
        {
          "indexed": false,
          "internalType": "uint256",
          "name": "round",
          "type": "uint256"
        }
      ],
      "name": "DataAggregated",
      "type": "event"
    },
    {
      "anonymous": false,
      "inputs": [
        {
          "indexed": false,
          "internalType": "uint256",
          "name": "taskID",
          "type": "uint256"
        },
        {
          "indexed": false,
          "internalType": "uint256",
          "name": "round",
          "type": "uint256"
        },
        {
          "indexed": false,
          "internalType": "uint256",
          "name": "workerID",
          "type": "uint256"
        }
      ],
      "name": "DataUploaded",
      "type": "event"
    },
    {
      "anonymous": false,
      "inputs": [
        {
          "indexed": false,
          "internalType": "uint256",
          "name": "taskID",
          "type": "uint256"
        },
        {
          "indexed": false,
          "internalType": "uint256",
          "name": "round",
          "type": "uint256"
        }
      ],
      "name": "RoundStarted",
      "type": "event"
    },
    {
      "anonymous": false,
      "inputs": [
        {
          "indexed": false,
          "internalType": "uint256",
          "name": "taskID",
          "type": "uint256"
        },
        {
          "indexed": false,
          "internalType": "address",
          "name": "creator",
          "type": "address"
        },
        {
          "indexed": false,
          "internalType": "uint256",
          "name": "workerCount",
          "type": "uint256"
        },
        {
          "indexed": false,
          "internalType": "uint256",
          "name": "maxRound",
          "type": "uint256"
        }
      ],
      "name": "TaskCreated",
      "type": "event"
    },
    {
      "anonymous": false,
      "inputs": [
        {
          "indexed": false,
          "internalType": "uint256",
          "name": "taskID",
          "type": "uint256"
        }
      ],
      "name": "TaskFinished",
      "type": "event"
    },
    {
      "anonymous": false,
      "inputs": [
        {
          "indexed": false,
          "internalType": "uint256",
          "name": "taskID",
          "type": "uint256"
        }
      ],
      "name": "TaskStarted",
      "type": "event"
    },
    {
      "anonymous": false,
      "inputs": [
        {
          "indexed": false,
          "internalType": "uint256",
          "name": "taskID",
          "type": "uint256"
        },
        {
          "indexed": false,
          "internalType": "address",
          "name": "worker",
          "type": "address"
        },
        {
          "indexed": false,
          "internalType": "uint256",
          "name": "workerID",
          "type": "uint256"
        }
      ],
      "name": "WorkerJoined",
      "type": "event"
    },
    {
      "inputs": [
        {
          "internalType": "uint256",
          "name": "taskID",
          "type": "uint256"
        },
        {
          "internalType": "uint256",
          "name": "round",
          "type": "uint256"
        }
      ],
      "name": "aggregateData",
      "outputs": [],
      "stateMutability": "nonpayable",
      "type": "function"
    },
    {
      "inputs": [
        {
          "internalType": "uint256",
          "name": "workerCount",
          "type": "uint256"
        },
        {
          "internalType": "uint256",
          "name": "maxRound",
          "type": "uint256"
        }
      ],
      "name": "createTask",
      "outputs": [],
      "stateMutability": "nonpayable",
      "type": "function"
    },
    {
      "inputs": [
        {
          "internalType": "uint256",
          "name": "taskID",
          "type": "uint256"
        }
      ],
      "name": "finishTask",
      "outputs": [],
      "stateMutability": "nonpayable",
      "type": "function"
    },
    {
      "inputs": [
        {
          "internalType": "uint256",
          "name": "taskID",
          "type": "uint256"
        }
      ],
      "name": "getTask",
      "outputs": [
        {
          "components": [
            {
              "internalType": "uint256",
              "name": "taskID",
              "type": "uint256"
            },
            {
              "internalType": "address",
              "name": "creator",
              "type": "address"
            },
            {
              "internalType": "uint256",
              "name": "maxWorkerCount",
              "type": "uint256"
            },
            {
              "internalType": "uint256",
              "name": "maxRound",
              "type": "uint256"
            },
            {
              "internalType": "uint256",
              "name": "currRound",
              "type": "uint256"
            },
            {
              "internalType": "address[]",
              "name": "workers",
              "type": "address[]"
            },
            {
              "internalType": "bool[]",
              "name": "dataUploaded",
              "type": "bool[]"
            },
            {
              "internalType": "bool",
              "name": "dataAggregated",
              "type": "bool"
            }
          ],
          "internalType": "struct FLTask.Task",
          "name": "",
          "type": "tuple"
        }
      ],
      "stateMutability": "view",
      "type": "function"
    },
    {
      "inputs": [
        {
          "internalType": "uint256",
          "name": "taskID",
          "type": "uint256"
        }
      ],
      "name": "joinTask",
      "outputs": [],
      "stateMutability": "nonpayable",
      "type": "function"
    },
    {
      "inputs": [
        {
          "internalType": "uint256",
          "name": "taskID",
          "type": "uint256"
        },
        {
          "internalType": "uint256",
          "name": "round",
          "type": "uint256"
        }
      ],
      "name": "startRound",
      "outputs": [],
      "stateMutability": "nonpayable",
      "type": "function"
    },
    {
      "inputs": [
        {
          "internalType": "uint256",
          "name": "taskID",
          "type": "uint256"
        }
      ],
      "name": "startTask",
      "outputs": [],
      "stateMutability": "nonpayable",
      "type": "function"
    },
    {
      "inputs": [
        {
          "internalType": "uint256",
          "name": "taskID",
          "type": "uint256"
        },
        {
          "internalType": "uint256",
          "name": "round",
          "type": "uint256"
        },
        {
          "internalType": "uint256",
          "name": "workerID",
          "type": "uint256"
        }
      ],
      "name": "uploadData",
      "outputs": [],
      "stateMutability": "nonpayable",
      "type": "function"
    }
  ],
  "bytecode": "0x608060405260018055348015601357600080fd5b50611dd5806100236000396000f3fe608060405234801561001057600080fd5b50600436106100885760003560e01c8063842178b21161005b578063842178b214610111578063c39643721461012d578063e75b237814610149578063fff4d10d1461016557610088565b80631d65e77e1461008d57806336e14a10146100bd5780635f944326146100d95780637b23b40a146100f5575b600080fd5b6100a760048036038101906100a29190611344565b610181565b6040516100b491906115f1565b60405180910390f35b6100d760048036038101906100d29190611613565b610352565b005b6100f360048036038101906100ee9190611344565b6105ce565b005b61010f600480360381019061010a9190611344565b610771565b005b61012b60048036038101906101269190611344565b610909565b005b61014760048036038101906101429190611613565b610a76565b005b610163600480360381019061015e9190611613565b610d3d565b005b61017f600480360381019061017a9190611653565b610ee7565b005b610189611116565b60008083815260200190815260200160002060405180610100016040529081600082015481526020016001820160009054906101000a900473ffffffffffffffffffffffffffffffffffffffff1673ffffffffffffffffffffffffffffffffffffffff1673ffffffffffffffffffffffffffffffffffffffff168152602001600282015481526020016003820154815260200160048201548152602001600582018054806020026020016040519081016040528092919081815260200182805480156102aa57602002820191906000526020600020905b8160009054906101000a900473ffffffffffffffffffffffffffffffffffffffff1673ffffffffffffffffffffffffffffffffffffffff1681526020019060010190808311610260575b505050505081526020016006820180548060200260200160405190810160405280929190818152602001828054801561032757602002820191906000526020600020906000905b82829054906101000a900460ff161515815260200190600101906020826000010492830192600103820291508084116102f15790505b505050505081526020016007820160009054906101000a900460ff1615151515815250509050919050565b3373ffffffffffffffffffffffffffffffffffffffff1660008084815260200190815260200160002060010160009054906101000a900473ffffffffffffffffffffffffffffffffffffffff1673ffffffffffffffffffffffffffffffffffffffff16146103f5576040517f08c379a00000000000000000000000000000000000000000000000000000000081526004016103ec90611703565b60405180910390fd5b80600080848152602001908152602001600020600401541461044c576040517f08c379a00000000000000000000000000000000000000000000000000000000081526004016104439061176f565b60405180910390fd5b60005b600080848152602001908152602001600020600201548110156104ff5760008084815260200190815260200160002060060181815481106104935761049261178f565b5b90600052602060002090602091828204019190069054906101000a900460ff166104f2576040517f08c379a00000000000000000000000000000000000000000000000000000000081526004016104e990611830565b60405180910390fd5b808060010191505061044f565b5060008083815260200190815260200160002060070160009054906101000a900460ff1615610563576040517f08c379a000000000000000000000000000000000000000000000000000000000815260040161055a9061189c565b60405180910390fd5b600160008084815260200190815260200160002060070160006101000a81548160ff0219169083151502179055507f7d0b66134fa67d827ade897b74d8188a5d4bf8f648339633b4c453667ddcba8e82826040516105c29291906118cb565b60405180910390a15050565b600080828152602001908152602001600020600001548114610625576040517f08c379a000000000000000000000000000000000000000000000000000000000815260040161061c90611940565b60405180910390fd5b3373ffffffffffffffffffffffffffffffffffffffff1660008083815260200190815260200160002060010160009054906101000a900473ffffffffffffffffffffffffffffffffffffffff1673ffffffffffffffffffffffffffffffffffffffff16146106c8576040517f08c379a00000000000000000000000000000000000000000000000000000000081526004016106bf90611703565b60405180910390fd5b600080828152602001908152602001600020600201546000808381526020019081526020016000206005018054905014610737576040517f08c379a000000000000000000000000000000000000000000000000000000000815260040161072e906119ac565b60405180910390fd5b7fa20ac7f16cfb4313b156d64f380ccd1f8276f438d0b621eb33db07cfc639da478160405161076691906119cc565b60405180910390a150565b6000808281526020019081526020016000206000015481146107c8576040517f08c379a00000000000000000000000000000000000000000000000000000000081526004016107bf90611940565b60405180910390fd5b600080828152602001908152602001600020600201546000808381526020019081526020016000206005018054905010610837576040517f08c379a000000000000000000000000000000000000000000000000000000000815260040161082e90611a33565b60405180910390fd5b6000806000838152602001908152602001600020600501805490509050600080838152602001908152602001600020600501339080600181540180825580915050600190039060005260206000200160009091909190916101000a81548173ffffffffffffffffffffffffffffffffffffffff021916908373ffffffffffffffffffffffffffffffffffffffff1602179055507fe9416adbb49f7917f41bbacee39dc20b227af6f03576494e40dfd5be476effe08233836040516108fd93929190611a62565b60405180910390a15050565b3373ffffffffffffffffffffffffffffffffffffffff1660008083815260200190815260200160002060010160009054906101000a900473ffffffffffffffffffffffffffffffffffffffff1673ffffffffffffffffffffffffffffffffffffffff16146109ac576040517f08c379a00000000000000000000000000000000000000000000000000000000081526004016109a390611703565b60405180910390fd5b6000808281526020019081526020016000206000808201600090556001820160006101000a81549073ffffffffffffffffffffffffffffffffffffffff0219169055600282016000905560038201600090556004820160009055600582016000610a169190611173565b600682016000610a269190611194565b6007820160006101000a81549060ff021916905550507f3deefa5a8cd42d79db72f3740655d764ae6a64e1d25136691405f6c3d0b52bfc81604051610a6b91906119cc565b60405180910390a150565b600080838152602001908152602001600020600001548214610acd576040517f08c379a0000000000000000000000000000000000000000000000000000000008152600401610ac490611940565b60405180910390fd5b3373ffffffffffffffffffffffffffffffffffffffff1660008084815260200190815260200160002060010160009054906101000a900473ffffffffffffffffffffffffffffffffffffffff1673ffffffffffffffffffffffffffffffffffffffff1614610b70576040517f08c379a0000000000000000000000000000000000000000000000000000000008152600401610b6790611703565b60405180910390fd5b60008083815260200190815260200160002060030154811115610bc8576040517f08c379a0000000000000000000000000000000000000000000000000000000008152600401610bbf90611ae5565b60405180910390fd5b600160008084815260200190815260200160002060040154610bea9190611b34565b8114610c2b576040517f08c379a0000000000000000000000000000000000000000000000000000000008152600401610c2290611bb4565b60405180910390fd5b600080600084815260200190815260200160002060020154905081600080858152602001908152602001600020600401819055508067ffffffffffffffff811115610c7957610c78611bd4565b5b604051908082528060200260200182016040528015610ca75781602001602082028036833780820191505090505b506000808581526020019081526020016000206006019080519060200190610cd09291906111bc565b50600080600085815260200190815260200160002060070160006101000a81548160ff0219169083151502179055507f278844837bcf8364a705384bf3a2812901f54155bae86dea81dd52aa5b9ec0e38383604051610d309291906118cb565b60405180910390a1505050565b6000600154905060016000815480929190610d5790611c03565b9190505550610d64611116565b8181600001818152505033816020019073ffffffffffffffffffffffffffffffffffffffff16908173ffffffffffffffffffffffffffffffffffffffff168152505083816040018181525050828160600181815250506000816080018181525050806000808481526020019081526020016000206000820151816000015560208201518160010160006101000a81548173ffffffffffffffffffffffffffffffffffffffff021916908373ffffffffffffffffffffffffffffffffffffffff16021790555060408201518160020155606082015181600301556080820151816004015560a0820151816005019080519060200190610e63929190611262565b5060c0820151816006019080519060200190610e809291906111bc565b5060e08201518160070160006101000a81548160ff0219169083151502179055509050507ff5ac772f880dc6ed6b50db24e062bbc51818e270ed47533fd9162e5255fa291382338686604051610ed99493929190611c4b565b60405180910390a150505050565b816000808581526020019081526020016000206004015414610f3e576040517f08c379a0000000000000000000000000000000000000000000000000000000008152600401610f359061176f565b60405180910390fd5b3373ffffffffffffffffffffffffffffffffffffffff166000808581526020019081526020016000206005018281548110610f7c57610f7b61178f565b5b9060005260206000200160009054906101000a900473ffffffffffffffffffffffffffffffffffffffff1673ffffffffffffffffffffffffffffffffffffffff1614610ffd576040517f08c379a0000000000000000000000000000000000000000000000000000000008152600401610ff490611cdc565b60405180910390fd5b60008084815260200190815260200160002060060181815481106110245761102361178f565b5b90600052602060002090602091828204019190069054906101000a900460ff1615611084576040517f08c379a000000000000000000000000000000000000000000000000000000000815260040161107b90611d48565b60405180910390fd5b600160008085815260200190815260200160002060060182815481106110ad576110ac61178f565b5b90600052602060002090602091828204019190066101000a81548160ff0219169083151502179055507f11369adb311e659402d98f7c02a27301ef1249dd7dab8f07e5351c51ac5022f883838360405161110993929190611d68565b60405180910390a1505050565b60405180610100016040528060008152602001600073ffffffffffffffffffffffffffffffffffffffff16815260200160008152602001600081526020016000815260200160608152602001606081526020016000151581525090565b508054600082559060005260206000209081019061119191906112ec565b50565b50805460008255601f0160209004906000526020600020908101906111b991906112ec565b50565b82805482825590600052602060002090601f016020900481019282156112515791602002820160005b8382111561122257835183826101000a81548160ff02191690831515021790555092602001926001016020816000010492830192600103026111e5565b801561124f5782816101000a81549060ff0219169055600101602081600001049283019260010302611222565b505b50905061125e91906112ec565b5090565b8280548282559060005260206000209081019282156112db579160200282015b828111156112da5782518260006101000a81548173ffffffffffffffffffffffffffffffffffffffff021916908373ffffffffffffffffffffffffffffffffffffffff16021790555091602001919060010190611282565b5b5090506112e891906112ec565b5090565b5b808211156113055760008160009055506001016112ed565b5090565b600080fd5b6000819050919050565b6113218161130e565b811461132c57600080fd5b50565b60008135905061133e81611318565b92915050565b60006020828403121561135a57611359611309565b5b60006113688482850161132f565b91505092915050565b61137a8161130e565b82525050565b600073ffffffffffffffffffffffffffffffffffffffff82169050919050565b60006113ab82611380565b9050919050565b6113bb816113a0565b82525050565b600081519050919050565b600082825260208201905092915050565b6000819050602082019050919050565b60006113f983836113b2565b60208301905092915050565b6000602082019050919050565b600061141d826113c1565b61142781856113cc565b9350611432836113dd565b8060005b8381101561146357815161144a88826113ed565b975061145583611405565b925050600181019050611436565b5085935050505092915050565b600081519050919050565b600082825260208201905092915050565b6000819050602082019050919050565b60008115159050919050565b6114b18161149c565b82525050565b60006114c383836114a8565b60208301905092915050565b6000602082019050919050565b60006114e782611470565b6114f1818561147b565b93506114fc8361148c565b8060005b8381101561152d57815161151488826114b7565b975061151f836114cf565b925050600181019050611500565b5085935050505092915050565b6000610100830160008301516115536000860182611371565b50602083015161156660208601826113b2565b5060408301516115796040860182611371565b50606083015161158c6060860182611371565b50608083015161159f6080860182611371565b5060a083015184820360a08601526115b78282611412565b91505060c083015184820360c08601526115d182826114dc565b91505060e08301516115e660e08601826114a8565b508091505092915050565b6000602082019050818103600083015261160b818461153a565b905092915050565b6000806040838503121561162a57611629611309565b5b60006116388582860161132f565b92505060206116498582860161132f565b9150509250929050565b60008060006060848603121561166c5761166b611309565b5b600061167a8682870161132f565b935050602061168b8682870161132f565b925050604061169c8682870161132f565b9150509250925092565b600082825260208201905092915050565b7f4e6f74207461736b2063726561746f7200000000000000000000000000000000600082015250565b60006116ed6010836116a6565b91506116f8826116b7565b602082019050919050565b6000602082019050818103600083015261171c816116e0565b9050919050565b7f4e6f742063757272656e7420726f756e64000000000000000000000000000000600082015250565b60006117596011836116a6565b915061176482611723565b602082019050919050565b600060208201905081810360008301526117888161174c565b9050919050565b7f4e487b7100000000000000000000000000000000000000000000000000000000600052603260045260246000fd5b7f4f6e65206f6620776f726b657273206861736e27742075706c6f61646564206460008201527f6174610000000000000000000000000000000000000000000000000000000000602082015250565b600061181a6023836116a6565b9150611825826117be565b604082019050919050565b600060208201905081810360008301526118498161180d565b9050919050565b7f486173206265656e206167677265676174656400000000000000000000000000600082015250565b60006118866013836116a6565b915061189182611850565b602082019050919050565b600060208201905081810360008301526118b581611879565b9050919050565b6118c58161130e565b82525050565b60006040820190506118e060008301856118bc565b6118ed60208301846118bc565b9392505050565b7f5461736b206e6f74206578697374730000000000000000000000000000000000600082015250565b600061192a600f836116a6565b9150611935826118f4565b602082019050919050565b600060208201905081810360008301526119598161191d565b9050919050565b7f4e6f7420656e6f75676820776f726b6572730000000000000000000000000000600082015250565b60006119966012836116a6565b91506119a182611960565b602082019050919050565b600060208201905081810360008301526119c581611989565b9050919050565b60006020820190506119e160008301846118bc565b92915050565b7f546f6f206d616e7920776f726b65727300000000000000000000000000000000600082015250565b6000611a1d6010836116a6565b9150611a28826119e7565b602082019050919050565b60006020820190508181036000830152611a4c81611a10565b9050919050565b611a5c816113a0565b82525050565b6000606082019050611a7760008301866118bc565b611a846020830185611a53565b611a9160408301846118bc565b949350505050565b7f526f756e6420657863656564206c696d69740000000000000000000000000000600082015250565b6000611acf6012836116a6565b9150611ada82611a99565b602082019050919050565b60006020820190508181036000830152611afe81611ac2565b9050919050565b7f4e487b7100000000000000000000000000000000000000000000000000000000600052601160045260246000fd5b6000611b3f8261130e565b9150611b4a8361130e565b9250828201905080821115611b6257611b61611b05565b5b92915050565b7f526f756e64206e6f7420636f6e74696e756f7573000000000000000000000000600082015250565b6000611b9e6014836116a6565b9150611ba982611b68565b602082019050919050565b60006020820190508181036000830152611bcd81611b91565b9050919050565b7f4e487b7100000000000000000000000000000000000000000000000000000000600052604160045260246000fd5b6000611c0e8261130e565b91507fffffffffffffffffffffffffffffffffffffffffffffffffffffffffffffffff8203611c4057611c3f611b05565b5b600182019050919050565b6000608082019050611c6060008301876118bc565b611c6d6020830186611a53565b611c7a60408301856118bc565b611c8760608301846118bc565b95945050505050565b7f57726f6e6720776f726b65722049440000000000000000000000000000000000600082015250565b6000611cc6600f836116a6565b9150611cd182611c90565b602082019050919050565b60006020820190508181036000830152611cf581611cb9565b9050919050565b7f4461746120686173206265656e2075706c6f6164656400000000000000000000600082015250565b6000611d326016836116a6565b9150611d3d82611cfc565b602082019050919050565b60006020820190508181036000830152611d6181611d25565b9050919050565b6000606082019050611d7d60008301866118bc565b611d8a60208301856118bc565b611d9760408301846118bc565b94935050505056fea2646970667358221220db866168d04db3687893faed1be21fccb51338c359228065271d0f71a357ee9464736f6c634300081b0033",
  "linkReferences": {},
  "deployedLinkReferences": {}
}